:100000000C9475000C9492000C9492000C94920045
:100010000C9492000C9492000C9492000C94920018
:100020000C9492000C9492000C9492000C94920008
:100030000C9492000C9492000C9492000C949200F8
:100040000C9492000C9492000C9492000C949200E8
:100050000C949200036EDB363D9A9999993DABAAB8
:10006000AA2A3E000000803F072C7AA5BA6CC590F2
:10007000DA3B9365FC8BBC53F810FD3C5692834DE4
:10008000BD879D3AB63DCBC9BF5BBE73DA0FC93F92
:1000900005A84CCDB2D44EB93836A9020C50B9914E
:1000A0008688083CA6AAAA2ABE000000803F4E41CE
:1000B0004E494E495459494E46CDCCCC3D0AD723E2
:1000C0003C17B7D13877CC2B329595E6241FB14F2A
:1000D0000A000020410000C84200401C4620BCBE6F
:1000E0004CCA1B0E5AAEC59D740011241FBECFE52D
:1000F000D8E0DEBFCDBF10E0A0E6B0E0EEE2FBE16D
:1001000002C005900D92A637B107D9F720E0A6E707
:10011000B0E001C01D92A33CB207E1F70E941F05A9
:100120000C94950D0C9400008FEF8ABB9FE09BBB55
:1001300084BB81BB089583E389B98AB188618AB998
:1001400008955F9BFECF8CB108951F93CF93DF93EB
:100150001092770010927600C0E0D0E013C0219694
:10016000BE0180917600909177000E94D50990930E
:100170007700809376009E0121503109FC01E20F47
:10018000F31F10830E94A100182F8B3241F7BE018C
:100190006F5F7F4F80917600909177000E94D50924
:1001A0009093770080937600C80FD91F1882DF9153
:1001B000CF911F9108952F923F924F925F926F922D
:1001C0007F928F929F92AF92BF92CF92DF92EF92E7
:1001D000FF920F931F93CF93DF93CDB7DEB7629754
:1001E0000FB6F894DEBF0FBECDBF1C017A8B698BB2
:1001F000CA01B90127EB39E540E85FE30E94E7084F
:1002000020E03CEB44E557E40E9403066093A50020
:100210007093A6008093A7009093A800A80197016F
:100220000E9402066093790070937A0080937B00AD
:1002300090937C0010C020E030EC48EA57E4C30102
:10024000B2010E9402066093790070937A00809355
:100250007B0090937C004090790050907A006090F1
:100260007B0070907C0020E030E0A901C301B20166
:100270000E948A068823FCF220E030EC48EA57E42A
:10028000C301B2010E94E2088823ACF620E030E00E
:1002900040E751E4C301B2010E94E70820E030E0EA
:1002A00044EB53E40E94E70820E034E34EE959E4CC
:1002B0000E9494062B013C012BED3FE049E450E401
:1002C000C601B5010E94E70820E030E044E353E4B2
:1002D0000E9494064B015C010E9454096D837E8349
:1002E0008F83988721E03DEC4EE45FE30E94E708AE
:1002F0006B017C01C501B4010E948F064B015C01BA
:100300002AE335EE46E15FE30E94E70869837A83DA
:100310008B839C832BED3FE049E450E4C301B201A1
:100320000E94E70820E030E044E353E40E94940692
:100330006D877E878F87988B0E948F0669877A8763
:100340008B879C879B01AC0169817A818B819C8121
:100350000E94E7089B01AC01C701B6010E94030699
:100360000E946F0669837A838B839C8320E030E050
:1003700044E353E40E94E7082BED3FE049E450E4F6
:100380000E9494066B017C01E989FA89608371837C
:10039000828393832401350177FA709477F87094FF
:1003A0006D857E858F8598890E9454099B01AC01DB
:1003B000C301B2010E94E7082B013C012BED3FE095
:1003C00049E450E4C701B6010E94E70820E030E0AC
:1003D00044E353E40E9494060E948F069B01AC0103
:1003E000C301B2010E9494066B017C012AE335EE41
:1003F00046E15FEB6D817E818F8198850E94E708E1
:100400002B013C0121E03DEC4EE45FE3C501B4016A
:100410000E94E7089B01AC0169857A858B859C85E4
:100420000E94E7089B01AC01C301B2010E940306D0
:100430002B013C0177FA709477F8709469817A8186
:100440008B819C810E948F069B01AC01C301B2018C
:100450000E9494064B015C0120E030E0A901C70135
:10046000B6010E94E2081816FCF420E030E0A90171
:10047000C501B4010E94E2081816B4F4C701B60120
:100480000E946F0620E030E044E353E40E94E70856
:100490002BED3FE049E450E40E949406F1016083B3
:1004A0007183828393838DC020E030E0A901C7016E
:1004B000B6010E94E20818163CF520E030E0A901E0
:1004C000C501B4010E948A068823F4F4C701B6016D
:1004D0000E946F0620E030E044E353E40E94E70806
:1004E0002BED3FE049E450E40E9494069B01AC01EF
:1004F00060E070E084E393E40E940206F10160830F
:100500007183828393835DC020E030E0A901C7013D
:10051000B6010E948A0688232CF520E030E0A9016C
:10052000C501B4010E94E2081816E4F4C701B6013F
:100530000E946F0620E030E044E353E40E94E708A5
:100540002BED3FE049E450E40E94940620E030E0C7
:1005500044EB53E40E940306F101608371838283BC
:1005600093832FC020E030E0A901C701B6010E94AB
:100570008A06882334F520E030E0A901C501B401E2
:100580000E948A068823ECF4C701B6010E946F0618
:1005900020E030E044E353E40E94E7082BED3FE025
:1005A00049E450E40E9494069B01AC0160E070E0D5
:1005B00084E393E40E940206F101608371838283E5
:1005C000938362960FB6F894DEBF0FBECDBFDF9166
:1005D000CF911F910F91FF90EF90DF90CF90BF9040
:1005E000AF909F908F907F906F905F904F903F90D3
:1005F0002F9008954F925F926F927F928F929F9269
:10060000AF92BF92CF92DF92EF92FF920F931F9320
:10061000CF93DF9300D000D000D0CDB7DEB7698391
:100620007A838B839C8329013A0104301105E1F020
:100630003CF40130110571F00230110581F026C043
:1006400000311105D9F000321105E1F00830110533
:10065000E9F40FC08FE08BBB80E385BB17C08BE153
:1006600082BB8AE18BBB12C08BE282BB8AE28BBB6E
:100670000DC08BE382BB8AE38BBB08C08AE482BBDC
:100680008BBB04C08FE782BB8DE78BBB20E030E0E3
:1006900040E055E469817A818B819C810E94E70862
:1006A0006B017C016091660070E080E090E00E9448
:1006B0004A074B015C019B01AC01C701B6010E94D6
:1006C000E70820E030E044EB53E40E9494069B01ED
:1006D000AC010E9403060E9406072E833D83C42EB0
:1006E000D52EE62EF72E082F192F20939500309344
:1006F0009600C0929700D0929800E0929900F092F4
:100700009A0000939B0010939C0020E030E040E0B2
:1007100055E4C301B2010E94E7089B01AC01C50189
:10072000B4010E94E70820E030E044EB53E40E946B
:1007300094069B01AC010E9403060E9406072093C9
:100740007D0030937E0040937F0050938000609343
:10075000810070938200809383009093840020E056
:1007600030E044E353E469817A818B819C810E946B
:100770008A0618160CF545C08BB382608BBB8BB311
:100780008D7F8BBB8FE99FE00197F1F700C00000E0
:100790002D8139814B2F5A2F6F2F7E2F882D992D28
:1007A000A1E00E94B7092D833983B42FA52FF62F1E
:1007B000E72F882E992E08C01D821982B0E0A0E094
:1007C000F0E0E0E0812C912CA0909500B090960094
:1007D000C0909700D0909800E0909900F0909A0017
:1007E00000919B0010919C002D8139814B2F5A2F35
:1007F0006F2F7E2F882D992D0E94CC090CF4BCCF31
:1008000070C08091670090916800A0916900B091DC
:100810006A004C015D01BB0C8808982C5401282FFC
:10082000392F4A2F5B2F682D782D882D982DAE807B
:10083000BD800E94C3092093B5003093B600409359
:10084000B7005093B8006093B9007093BA008093DA
:10085000BB009093BC001D821982B0E0A0E0F0E0E4
:10086000E0E0812C912C1FC08BB388608BBB8BB3D5
:10087000877F8BBB8FE99FE00197F1F700C00000F5
:100880002D8139814B2F5A2F6F2F7E2F882D992D37
:10089000A1E00E94B7092D833983B42FA52FF62F2D
:1008A000E72F882E992EA090B500B090B600C0908A
:1008B000B700D090B800E090B900F090BA00009175
:1008C000BB001091BC002D8139814B2F5A2F6F2F07
:1008D0007E2F882D992D0E94CC0934F28BB3816034
:1008E0008BBB20E030E0A901C301B2010E94E20805
:1008F00018160CF04FC020E030E040EA52E4C3018B
:10090000B2010E948A0688230CF144C085B380643A
:1009100085BB85B38F7B85BB8FE99FE00197F1F79E
:1009200000C000002D8139814B2F5A2F6F2F7E2F51
:10093000882D992DA1E00E94B7092D833983B42F0A
:10094000A52FF62FE72F882E992E08C01D82198219
:10095000B0E0A0E0F0E0E0E0812C912CA0907D00E0
:10096000B0907E00C0907F00D0908000E090810029
:10097000F090820000918300109184002D813981D4
:100980004B2F5A2F6F2F7E2F882D992D0E94CC0927
:100990000CF4BCCF15BA1BBA26960FB6F894DEBF7E
:1009A0000FBECDBFDF91CF911F910F91FF90EF90C0
:1009B000DF90CF90BF90AF909F908F907F906F907F
:1009C0005F904F900895AC01662329F080E385BBCA
:1009D00020E030E011C080EB85BBFACF95B3906486
:1009E00095BB95B39F7B95BB8FE097E20197F1F79D
:1009F00000C000002F5F3F4F2417350778F315BA6A
:100A00000895AC01662329F08FE08BBB20E030E035
:100A100011C08EE08BBBFACF9BB392609BBB9BB3A4
:100A20009D7F9BBB8FE097E20197F1F700C000002C
:100A30002F5F3F4F2417350778F31BBA08950E94A4
:100A400094000E949B000E94A500EC016BE670E000
:100A50000E94A80A892B31F461E08EE190E00E94A7
:100A60000105F1CF6DE670E0CE010E94A80A892B46
:100A700031F460E08EE190E00E940105E4CF6FE682
:100A800070E0CE010E94A80A892B31F461E08EE16A
:100A900090E00E94E304D7CF61E770E0CE010E94AE
:100AA000A80A892B31F460E08EE190E00E94E30413
:100AB000CACF63E770E0CE010E94A80A892B19F61D
:100AC00080917800882319F00E94A500EC01CE01E6
:100AD0000E949B0A0E9406072093AD003093AE004F
:100AE0004093AF005093B0006093B1007093B20098
:100AF0008093B3009093B4000E94A5000E949B0ACB
:100B00000E9406072093850030938600409387005B
:100B1000509388006093890070938A0080938B00C3
:100B200090938C000E94A5000E949B0A0E940607D9
:100B3000E22E832E942EF52E062F172FD82FC92F95
:100B400020939D0030939E0040939F005093A000FF
:100B50006093A1007093A2008093A3009093A400DF
:100B60002091850030918600409187005091880047
:100B70006091890070918A0080918B0090918C0027
:100B80000E9442075B016C012091AD003091AE00E4
:100B90004091AF005091B0006091B1007091B200EF
:100BA0008091B3009091B4000E9442072B013C0158
:100BB0002E2D382D492D5F2D602F712F8D2F9C2FBD
:100BC0000E9442079B01AC018301720161E970E060
:100BD0008DE890E00E94DB000091660010E020911B
:100BE0009100309192004091930050919400609157
:100BF0008D0070918E0080918F00909190000E94E6
:100C0000FA0221CF5058BB27AA270E941A060C943B
:100C100094080E945B0838F00E94620820F039F4C2
:100C20009F3F19F426F40C940D080EF4E095E7FBB1
:100C30000C940708E92F0E94B90858F3BA17620705
:100C400073078407950720F079F4A6F50C94DB0868
:100C50000EF4E0950B2EBA2FA02D0B01B9019001D7
:100C60000C01CA01A0011124FF27591B99F0593F1B
:100C700050F4503E68F11A16F040A22F232F342F63
:100C80004427585FF3CF469537952795A795F040B1
:100C90005395C9F77EF41F16BA0B620B730B840BC6
:100CA000BAF09150A1F0FF0FBB1F661F771F881F7E
:100CB000C2F70EC0BA0F621F731F841F48F48795D6
:100CC00077956795B795F7959E3F08F0B0CF9395C8
:100CD000880F08F09927EE0F9795879508959F93B1
:100CE0009F77EEE389379E0728F4E4E5F0E00E9461
:100CF00047080CC00E94C3079058A2EA2AED3FE0C3
:100D000049EC5FE30E941A060E9494080F9007FCCA
:100D1000905808950E94E30708F481E008950E9426
:100D20006B08E3950C94A5080E94A8060C949408FF
:100D30000E94620858F00E945B0840F029F45F3F6F
:100D400029F00C94070851110C94DC080C940D0840
:100D50000E94B90868F39923B1F3552391F3951BC9
:100D6000550BBB27AA2762177307840738F09F5FCC
:100D70005F4F220F331F441FAA1FA9F335D00E2E39
:100D80003AF0E0E832D091505040E695001CCAF7A6
:100D90002BD0FE2F29D0660F771F881FBB1F261769
:100DA00037074807AB07B0E809F0BB0B802DBF0140
:100DB000FF2793585F4F3AF09E3F510578F00C940F
:100DC00007080C94DC085F3FE4F3983ED4F3869563
:100DD00077956795B795F7959F5FC9F7880F911D30
:100DE0009695879597F90895E1E0660F771F881F1C
:100DF000BB1F621773078407BA0720F0621B730BCF
:100E0000840BBA0BEE1F88F7E0950895BEE304D07B
:100E100008F490E80895BFE322273327A9010E9430
:100E2000C10860F19F5748F1B91740F1BFE3B91B02
:100E30009927B8503AF4660F771F881F991FB3950A
:100E4000D2F316C0B8504AF0232F342F452F562F17
:100E5000672F782F8827B850BAF7B85F49F0869582
:100E6000779567955795479537952795BA95B9F72B
:100E700016F40E94100888940895889460E070E049
:100E8000CB01089597FB16F40E9410080C94860776
:100E9000E89409C097FB3EF4909580957095619514
:100EA0007F4F8F4F9F4F9923A9F0F92F96E9BB27CA
:100EB0009395F695879577956795B795F111F8CF46
:100EC000FAF4BB0F11F460FF1BC06F5F7F4F8F4FB1
:100ED0009F4F16C0882311F096E911C0772321F0A7
:100EE0009EE8872F762F05C0662371F096E8862F3F
:100EF00070E060E02AF09A95660F771F881FDAF796
:100F0000880F9695879597F90895E894F92F96EBB1
:100F1000FF2381F0121613061406440B9395F695E1
:100F200087957795679557954040FF23B9F71BC084
:100F300099270895882351F49850D2F7872B762F5C
:100F4000652F542F432F322F20E0B1F312161306D2
:100F50001406440B88233AF09A95440F551F661FD8
:100F6000771F881FCAF755234AF4440F551F11F401
:100F700060FF04C06F5F7F4F8F4F9F4F880F969524
:100F8000879597F90895DF93CF931F930F938B0164
:100F9000EC01E8E6F0E00E9420080E949408980125
:100FA000AE018B01EC0160E070E080E89FE30E94FD
:100FB00002060E9462099801AE010F911F91CF9124
:100FC000DF910C94FA08990F0008550FAA0BE0E87E
:100FD000FEEF16161706E807F907C0F012161306FB
:100FE000E407F50798F0621B730B840B950B39F43B
:100FF0000A2661F0232B242B252B21F408950A26A1
:1010000009F4A140A6958FEF811D811D089597F9E0
:101010009F6780E870E060E008959FEF80EC08959E
:101020009095809570956095509540953095219557
:101030003F4F4F4F5F4F6F4F7F4F8F4F9F4F0895E1
:10104000DF93CF931F930F93FF92EF92DF927B0179
:101050008C01689406C0DA2EEF010E94FA08FE01A6
:10106000E894A5912591359145915591A6F3EF010D
:101070000E941A06FE019701A801DA9469F7DF9031
:10108000EF90FF900F911F91CF91DF9108959F9363
:101090008F937F936F93FF93EF939B01AC010E941B
:1010A000E708EF91FF910E9420082F913F914F9107
:1010B0005F910C94E70800240A9416161706180688
:1010C0000906089500240A9412161306140605064C
:1010D00008950C940D080E94C108D8F3E894E0E04C
:1010E000BB279F57F0F02AED3FE049EC06C0EE0F1A
:1010F000BB0F661F771F881F28F0B23A620773077D
:10110000840728F0B25A620B730B840BE3959A950F
:1011100072F7803830F49A95BB0F661F771F881FCF
:10112000D2F790480C94A409092E0394000C11F4F2
:10113000882352F0BB0F40F4BF2B11F460FF04C0B2
:101140006F5F7F4F8F4F9F4F0895EF93E0FF07C072
:10115000A2EA2AED3FE049EC5FEB0E941A060E94EA
:1011600094080F90039401FC9058E0E9F0E00C948F
:10117000470857FD9058440F551F59F05F3F71F0D5
:101180004795880F97FB991F61F09F3F79F08795EE
:101190000895121613061406551FF2CF4695F1DF77
:1011A00008C0161617061806991FF1CF8695710507
:1011B000610508940895E894BB2766277727CB013B
:1011C00097F908950E94E30708F48FEF08950E94AD
:1011D000FA080C9494080E945B0838F00E94620898
:1011E00020F0952311F00C9407080C940D0811249D
:1011F0000C94DC080E94B90870F3959FC1F3950F19
:1012000050E0551F629FF001729FBB27F00DB11D8A
:10121000639FAA27F00DB11DAA1F649F6627B00D1A
:10122000A11D661F829F2227B00DA11D621F739F03
:10123000B00DA11D621F839FA00D611D221F749F11
:101240003327A00D611D231F849F600D211D822F58
:10125000762F6A2F11249F5750409AF0F1F088237F
:101260004AF0EE0FFF1FBB1F661F771F881F9150AC
:101270005040A9F79E3F510580F00C9407080C944C
:10128000DC085F3FE4F3983ED4F386957795679545
:10129000B795F795E7959F5FC1F7FE2B880F911DD6
:1012A0009695879597F908959F930E946B080F90E4
:1012B00007FCEE5F0C94A50819F416F40C940D08C5
:1012C0000C94A2090E94C108B8F39923C9F3B6F39C
:1012D0009F57550B87FF0E94B0090024A0E640EA03
:1012E000900180585695979528F4805C660F771F7B
:1012F000881F20F026173707480730F4621B730B4E
:10130000840B202931294A2BA69517940794202570
:1013100031254A2758F7660F771F881F20F02617B8
:101320003707480730F4620B730B840B200D311D17
:10133000411DA09581F7B901842F9158880F96958A
:10134000879508959F3F31F0915020F487957795C8
:101350006795B795880F911D9695879597F908958C
:1013600091505040660F771F881FD2F708950024D0
:10137000A7FD00942A0F301D401D501D601D701DDB
:10138000801D901D08952A193B094C095D096E09BD
:101390007F09800B910B08952A153B054C055D05CF
:1013A0006E057F05800791070895A0E0B0E0EBEDA2
:1013B000F9E00C94530DEC01009721F4CB010E944D
:1013C000B10AB4C0FC01E60FF71F9C01225031099D
:1013D000E217F30708F4A8C0D9010D911C911197E9
:1013E00006171707B0F00530110508F49BC0C801B7
:1013F00004978617970708F495C002501109061B39
:10140000170B019311936D937C93CF010E94490BAD
:1014100089C05B01A01AB10A4C01800E911EA091F7
:10142000BF00B091C000612C712CE12CF12C109701
:1014300009F446C08D919C911197A815B905B1F595
:101440006C0142E0C40ED11CCA14DB0478F14C01DB
:101450008A189B08640142E0C40ED11C1296BC900D
:1014600012971396AC91B5E0CB16D10440F0B2823E
:10147000A38391828082D9016D937C9309C00E5F12
:101480001F4F800F911FF90191838083EB2DFA2F5D
:10149000E114F10431F0D7011396FC93EE93129707
:1014A00041C0F093C000E093BF003CC068167906CD
:1014B00008F43C017D0112960D90BC91A02DB7CF90
:1014C0008091BD009091BE0088169906E1F46616E1
:1014D0007706C8F48091600090916100009741F414
:1014E0008DB79EB74091640050916500841B950BA9
:1014F000E817F907C8F4F093BE00E093BD00F901C6
:10150000718360830FC0CB010E94B10A7C010097F8
:1015100059F0A801BE010E949F0ACE010E94490B0A
:10152000C70104C0CE0102C080E090E0CDB7DEB7B5
:10153000EEE00C946F0D662777270C94D20BFB011D
:10154000DC0102C001900D9241505040D8F708953F
:10155000FB01DC018D91019080190110D9F3990BE9
:1015600008950F931F93CF93DF938230910510F46A
:1015700082E090E0E091BF00F091C00020E030E018
:10158000A0E0B0E0309719F14081518102811381D0
:1015900048175907C8F08417950769F4109731F078
:1015A00012960C93129713961C9327C00093BF00BA
:1015B0001093C00022C02115310519F042175307BE
:1015C00018F49A01BD01EF01DF01F801DBCF21150D
:1015D0003105F9F0281B390B2430310580F48A815C
:1015E0009B816115710521F0FB019383828304C007
:1015F0009093C0008093BF00FE01329644C0FE016C
:10160000E20FF31F8193919322503109398328838C
:101610003AC02091BD003091BE00232B41F42091AF
:101620006200309163003093BE002093BD00209192
:101630006000309161002115310541F42DB73EB7AE
:101640004091640050916500241B350BE091BD0072
:10165000F091BE00E217F307A0F42E1B3F0B2817F2
:10166000390778F0AC014E5F5F4F2417350748F01B
:101670004E0F5F1F5093BE004093BD008193919326
:1016800002C0E0E0F0E0CF01DF91CF911F910F9118
:101690000895CF93DF93009709F481C0FC0132973E
:1016A00013821282A091BF00B091C000109781F404
:1016B00020813181820F931F2091BD003091BE00A7
:1016C0002817390751F5F093BE00E093BD0067C0BD
:1016D000ED0120E030E0CE17DF0740F44A815B8166
:1016E0009E0141155105F1F0EA01F5CFD383C28384
:1016F00040815181840F951FC817D90759F48881FB
:101700009981840F951F0296918380838A819B81A2
:10171000938382832115310529F4F093C000E0936F
:10172000BF003DC0E901FB83EA8349915991C40F91
:10173000D51FEC17FD0761F480819181840F951FFF
:101740000296E90199838883828193819B838A83AE
:10175000E0E0F0E012968D919C911397009719F0BC
:10176000FD01DC01F7CF8D919C9111979D012E5FBA
:101770003F4F820F931F2091BD003091BE0028176C
:10178000390769F4309729F41092C0001092BF0015
:1017900002C013821282B093BE00A093BD00DF91FD
:1017A000CF910895A0E0B0E0E8EDFBE00C94550D7A
:1017B000EC016B016115710519F0FB0191838083C8
:1017C0007E01FFEFEF1AFF0A0881802F90E00E9450
:1017D000200D892B11F0E701F3CF0D3239F47E0192
:1017E00082E0E80EF11C098111E008C00B3229F4F7
:1017F0007E0192E0E90EF11C098110E0E7012197DA
:1018000043E050E066EB70E0CE010E94290D892B89
:10181000C1F4239645E050E061EB70E0CE010E94F8
:10182000290D892B09F42596C114D10419F0F6016C
:10183000D183C0831111F6C060E070E080E89FE7BB
:10184000FAC043E050E06EEA70E0CE010E94290D3C
:10185000892B59F4C114D10409F4E9C0F2E0EF0E68
:10186000F11CF601F182E082E2C020E030E0A90143
:10187000C0E0D0E0F70180EDA82EA00E89E08A1527
:1018800030F1912F9260B92E812F887012FF04C021
:10189000811124C0219622C081112197A5E0B0E0DA
:1018A0000E94440DDC01CB01880F991FAA1FBB1FAA
:1018B0009C01AD012A0D311D411D511D283989E9B9
:1018C0003807480789E1580748F0166006C09EEFC0
:1018D000A9120AC013FD40C01860B12E8FEFE81A9C
:1018E000F80A00811B2DC6CF802F8F7D8534A1F58E
:1018F00080818D3211F4106106C08B3221F0319657
:1019000061E070E004C08181329662E070E0805353
:101910008A3018F0E61BF70B1FC060E070E06038FB
:101920009CE079075CF4DB01AA0FBB1FAA0FBB1F69
:101930006A0F7B1F660F771F680F711D3196DF01DD
:1019400011978C9180538A3050F314FF03C0719526
:1019500061957109C60FD71F11FF08C0C114D104CA
:1019600029F0CF010197F60191838083CA01B90163
:101970000E944807212F2370233019F04B015C018E
:1019800006C04B015C01B7FAB094B7F8B09420E000
:1019900030E0A901C501B4010E948A06882309F438
:1019A0003EC0D7FF06C0D195C195D1090DEC10E01E
:1019B00002C005EE10E06801F8E1CF1AD10890E20C
:1019C000E92EF12CCE15DF0574F0F8012591359143
:1019D00045915491C501B4010E94E7084B015C0197
:1019E000CE19DF09EFCF04501109F594E7940C15D7
:1019F0001D0541F78A2D880F8B2D881F8F3F49F0D9
:101A000020E030E0A901C501B4010E948A068111DD
:101A100006C082E290E09093C2008093C100C501AD
:101A2000B40109C060E070E080E89FEF04C060E0AE
:101A300070E080EC9FE7CDB7DEB7ECE00C94710D61
:101A400091110C94410D803219F089508550C8F7DE
:101A50000895FB01DC014150504088F08D918134A4
:101A60001CF08B350CF4805E659161341CF06B3595
:101A70000CF4605E861B611171F3990B0895881B4D
:101A8000FCCF9927882708950E94860DA59F900D69
:101A9000B49F900DA49F800D911D112408952F9245
:101AA0003F924F925F926F927F928F929F92AF92EE
:101AB000BF92CF92DF92EF92FF920F931F93CF933B
:101AC000DF93CDB7DEB7CA1BDB0B0FB6F894DEBFD2
:101AD0000FBECDBF09942A88398848885F846E84F8
:101AE0007D848C849B84AA84B984C884DF80EE8042
:101AF000FD800C811B81AA81B981CE0FD11D0FB64B
:101B0000F894DEBF0FBECDBFED010895A29FB001D6
:101B1000B39FC001A39F700D811D1124911DB29F21
:0E1B2000700D811D1124911D0895F894FFCFC2
:101B2E000000C3002000010000020031003200332B
:061B3E000034002D000040
:00000001FF
